{
  "contractName": "BikeShareContract",
  "abi": [
    {
      "constant": true,
      "inputs": [],
      "name": "availableForRent",
      "outputs": [
        {
          "name": "",
          "type": "bool"
        }
      ],
      "payable": false,
      "stateMutability": "view",
      "type": "function"
    },
    {
      "constant": true,
      "inputs": [],
      "name": "rider",
      "outputs": [
        {
          "name": "",
          "type": "address"
        }
      ],
      "payable": false,
      "stateMutability": "view",
      "type": "function"
    },
    {
      "constant": true,
      "inputs": [],
      "name": "owner",
      "outputs": [
        {
          "name": "",
          "type": "address"
        }
      ],
      "payable": false,
      "stateMutability": "view",
      "type": "function"
    },
    {
      "inputs": [
        {
          "name": "_ownerName",
          "type": "string"
        },
        {
          "name": "_bikeModel",
          "type": "string"
        },
        {
          "name": "_bikeSize",
          "type": "uint256"
        },
        {
          "name": "_rentRate",
          "type": "uint256"
        }
      ],
      "payable": false,
      "stateMutability": "nonpayable",
      "type": "constructor"
    },
    {
      "anonymous": false,
      "inputs": [
        {
          "indexed": false,
          "name": "_period",
          "type": "uint256"
        },
        {
          "indexed": false,
          "name": "_rider",
          "type": "address"
        },
        {
          "indexed": false,
          "name": "_rentRate",
          "type": "uint256"
        },
        {
          "indexed": false,
          "name": "_rentStart",
          "type": "uint256"
        }
      ],
      "name": "Unlock",
      "type": "event"
    },
    {
      "anonymous": false,
      "inputs": [
        {
          "indexed": false,
          "name": "_remaining",
          "type": "bool"
        },
        {
          "indexed": false,
          "name": "_remainingAmount",
          "type": "uint256"
        }
      ],
      "name": "Lock",
      "type": "event"
    },
    {
      "constant": true,
      "inputs": [],
      "name": "getBalance",
      "outputs": [
        {
          "name": "",
          "type": "uint256"
        }
      ],
      "payable": false,
      "stateMutability": "view",
      "type": "function"
    },
    {
      "constant": true,
      "inputs": [],
      "name": "getContractInfo",
      "outputs": [
        {
          "name": "",
          "type": "string"
        },
        {
          "name": "",
          "type": "string"
        },
        {
          "name": "",
          "type": "uint256"
        },
        {
          "name": "",
          "type": "uint256"
        },
        {
          "name": "",
          "type": "uint256"
        }
      ],
      "payable": false,
      "stateMutability": "view",
      "type": "function"
    },
    {
      "constant": false,
      "inputs": [
        {
          "name": "_period",
          "type": "uint256"
        }
      ],
      "name": "reserve",
      "outputs": [],
      "payable": true,
      "stateMutability": "payable",
      "type": "function"
    },
    {
      "constant": false,
      "inputs": [],
      "name": "endRent",
      "outputs": [],
      "payable": false,
      "stateMutability": "nonpayable",
      "type": "function"
    },
    {
      "constant": false,
      "inputs": [],
      "name": "withdrawFunds",
      "outputs": [
        {
          "name": "",
          "type": "bool"
        }
      ],
      "payable": false,
      "stateMutability": "nonpayable",
      "type": "function"
    }
  ],
  "bytecode": "0x6060604052341561000f57600080fd5b604051610b98380380610b988339810160405280805182019190602001805182019190602001805190602001909190805190602001909190505060016000806101000a81548160ff02191690831515021790555033600060016101000a81548173ffffffffffffffffffffffffffffffffffffffff021916908373ffffffffffffffffffffffffffffffffffffffff16021790555083600190805190602001906100ba9291906100e9565b5082600290805190602001906100d19291906100e9565b5081600381905550806004819055505050505061018e565b828054600181600116156101000203166002900490600052602060002090601f016020900481019282601f1061012a57805160ff1916838001178555610158565b82800160010185558215610158579182015b8281111561015757825182559160200191906001019061013c565b5b5090506101659190610169565b5090565b61018b91905b8082111561018757600081600090555060010161016f565b5090565b90565b6109fb8061019d6000396000f30060606040526004361061008e576000357c0100000000000000000000000000000000000000000000000000000000900463ffffffff16806312065fe01461009357806321c32976146100bc57806324600fc3146100d1578063310d539a146100fe57806353c0a0061461012b5780637cc1f86714610180578063819b25ba1461028f5780638da5cb5b146102a7575b600080fd5b341561009e57600080fd5b6100a66102fc565b6040518082815260200191505060405180910390f35b34156100c757600080fd5b6100cf61031b565b005b34156100dc57600080fd5b6100e46103d9565b604051808215151515815260200191505060405180910390f35b341561010957600080fd5b6101116104db565b604051808215151515815260200191505060405180910390f35b341561013657600080fd5b61013e6104ed565b604051808273ffffffffffffffffffffffffffffffffffffffff1673ffffffffffffffffffffffffffffffffffffffff16815260200191505060405180910390f35b341561018b57600080fd5b610193610513565b604051808060200180602001868152602001858152602001848152602001838103835288818151815260200191508051906020019080838360005b838110156101e95780820151818401526020810190506101ce565b50505050905090810190601f1680156102165780820380516001836020036101000a031916815260200191505b50838103825287818151815260200191508051906020019080838360005b8381101561024f578082015181840152602081019050610234565b50505050905090810190601f16801561027c5780820380516001836020036101000a031916815260200191505b5097505050505050505060405180910390f35b6102a5600480803590602001909190505061067e565b005b34156102b257600080fd5b6102ba6107f9565b604051808273ffffffffffffffffffffffffffffffffffffffff1673ffffffffffffffffffffffffffffffffffffffff16815260200191505060405180910390f35b60003073ffffffffffffffffffffffffffffffffffffffff1631905090565b600660009054906101000a900473ffffffffffffffffffffffffffffffffffffffff1673ffffffffffffffffffffffffffffffffffffffff163373ffffffffffffffffffffffffffffffffffffffff1614806103c45750600860009054906101000a900473ffffffffffffffffffffffffffffffffffffffff1673ffffffffffffffffffffffffffffffffffffffff163373ffffffffffffffffffffffffffffffffffffffff16145b15156103cf57600080fd5b6103d761081f565b565b60008060008060019054906101000a900473ffffffffffffffffffffffffffffffffffffffff1673ffffffffffffffffffffffffffffffffffffffff163373ffffffffffffffffffffffffffffffffffffffff1614151561043957600080fd5b3073ffffffffffffffffffffffffffffffffffffffff16319150600454600554029050808211156104d157600060019054906101000a900473ffffffffffffffffffffffffffffffffffffffff1673ffffffffffffffffffffffffffffffffffffffff166108fc8284039081150290604051600060405180830381858888f1935050505015156104c857600080fd5b600192506104d6565b600092505b505090565b6000809054906101000a900460ff1681565b600660009054906101000a900473ffffffffffffffffffffffffffffffffffffffff1681565b61051b6109bb565b6105236109bb565b600080600060016002600354600454600754848054600181600116156101000203166002900480601f0160208091040260200160405190810160405280929190818152602001828054600181600116156101000203166002900480156105ca5780601f1061059f576101008083540402835291602001916105ca565b820191906000526020600020905b8154815290600101906020018083116105ad57829003601f168201915b50505050509450838054600181600116156101000203166002900480601f0160208091040260200160405190810160405280929190818152602001828054600181600116156101000203166002900480156106665780601f1061063b57610100808354040283529160200191610666565b820191906000526020600020905b81548152906001019060200180831161064957829003601f168201915b50505050509350945094509450945094509091929394565b600115156000809054906101000a900460ff16151514151561069f57600080fd5b6004548102341415156106b157600080fd5b600060019054906101000a900473ffffffffffffffffffffffffffffffffffffffff1673ffffffffffffffffffffffffffffffffffffffff163373ffffffffffffffffffffffffffffffffffffffff161415151561070e57600080fd5b33600660006101000a81548173ffffffffffffffffffffffffffffffffffffffff021916908373ffffffffffffffffffffffffffffffffffffffff16021790555060008060006101000a81548160ff02191690831515021790555042600781905550806005819055507f0c93b9eaa1d0d374b80a5eaae0d66cb1f2eb8bb85c6dc5155edc99c7e4eb6b568133600454600754604051808581526020018473ffffffffffffffffffffffffffffffffffffffff1673ffffffffffffffffffffffffffffffffffffffff16815260200183815260200182815260200194505050505060405180910390a150565b600060019054906101000a900473ffffffffffffffffffffffffffffffffffffffff1681565b600080600060016000806101000a81548160ff0219169083151502179055506000600660006101000a81548173ffffffffffffffffffffffffffffffffffffffff021916908373ffffffffffffffffffffffffffffffffffffffff160217905550600060058190555060009250600554600754019050600660009054906101000a900473ffffffffffffffffffffffffffffffffffffffff1673ffffffffffffffffffffffffffffffffffffffff163373ffffffffffffffffffffffffffffffffffffffff161480156108f3575060075442115b80156108fe57508042105b1561097357600454428203029150600660009054906101000a900473ffffffffffffffffffffffffffffffffffffffff1673ffffffffffffffffffffffffffffffffffffffff166108fc839081150290604051600060405180830381858888f19350505050151561096e57600080fd5b600192505b7f108c7d3c4d8ad208c92f4064bac678f032a0ac5bdbaaa1c0fdbd240b23b445ea838360405180831515151581526020018281526020019250505060405180910390a1505050565b6020604051908101604052806000815250905600a165627a7a723058207ab1bf748030584d9f3a85bd2565c0cbdc98859967a2ec1904b25857d775094f0029",
  "source": "pragma solidity ^0.4.21;\n\ncontract BikeShareContract {\n    event Unlock(uint _period, address _rider, uint _rentRate, uint _rentStart);\n    event Lock(bool _remaining, uint _remainingAmount);\n    \n    bool public availableForRent;\n    \n    address public owner;\n    string ownerName;\n    string bikeModel;\n    uint bikeSize;\n    uint rentRate;\n    uint rentPeriod;\n    \n    address public rider;\n    uint rentStart;\n    \n    address schedulerAdress;\n\n    modifier onlyOwner() {\n        require(msg.sender == owner);\n        _;\n    }\n    \n    function getBalance() \n        public\n        view\n        returns (uint) {\n            return address(this).balance;\n    }\n    \n    function getContractInfo() \n        public\n        view\n        returns (string, string, uint, uint, uint) {\n            return (ownerName, bikeModel, bikeSize, rentRate, rentStart);\n    }\n\n    function BikeShareContract(\n        string _ownerName, \n        string _bikeModel, \n        uint _bikeSize, \n        uint _rentRate)\n        public {\n            availableForRent = true;\n            owner = msg.sender;\n            \n            ownerName = _ownerName;\n            bikeModel = _bikeModel;\n            bikeSize = _bikeSize;\n            rentRate = _rentRate;\n    }\n\n    function reserve(uint _period)\n        public \n        payable {\n            require(availableForRent == true);\n            require(msg.value == _period * rentRate);\n            require(msg.sender != owner);\n            \n            rider = msg.sender;\n            availableForRent = false;\n            rentStart = now;\n            rentPeriod = _period;\n            emit Unlock(_period, msg.sender, rentRate, rentStart);\n            // TODO: schedule tx to call endRent after the given _time period\n    }\n\n    function endRent()\n        public {\n            require(msg.sender == rider || msg.sender == schedulerAdress);\n            _endRent();\n    }\n    \n    function _endRent() \n        internal {\n            availableForRent = true;\n            rider = address(0);\n            rentPeriod = 0;\n    \n            bool remaining = false;\n            uint remainingAmount;\n            \n            uint rentEnd = rentStart + rentPeriod;\n            \n            if (msg.sender == rider && now > rentStart && now < rentEnd ) {\n                remainingAmount = (rentEnd - now) * rentRate;\n                rider.transfer(remainingAmount);\n                remaining = true;\n            }\n            emit Lock(remaining, remainingAmount);\n    }\n    \n    function withdrawFunds()\n        onlyOwner()\n        public \n        returns (bool) {\n            uint amount = address(this).balance;\n            uint lastRentAmout = rentPeriod * rentRate;\n            \n            if (amount > lastRentAmout) {\n                owner.transfer(amount - lastRentAmout);\n                return true;\n            }\n            return false;\n    }\n\n} // contract end",
  "sourcePath": "/Users/moustafa/bikesharing/contracts/BikeShare.sol",
  "compiler": {
    "name": "solc",
    "version": "0.4.21+commit.dfe3193c.Emscripten.clang"
  },
  "schemaVersion": "2.0.0",
  "updatedAt": "2018-03-27T20:33:34.794Z"
}